:20000000008020208D04000099040000990400000000000000000000000000000000000055
:200020000000000000000000000000009904000000000000000000009904000099040000E9
:200040009904000099040000990400009904000099040000990400009904000099040000B8
:2000600000000000990400009904000000000000000000009904000099040000990400006F
:200080009904000099040000990400009904000099040000990400000000000000000000B2
:2000A00099040000990400000000000000000000990400000000000099040000990400002F
:2000C000F0B583B0019040B24A4F3E4610360028304600DA384680210291016064242046E9
:2000E00000F038F940253D60204600F033F93D6101984006304600D53846029901602046B3
:2001000000F028F93D60204600F024F93D6101988006304600D5384602990160204600F0E6
:2001200019F93D60204600F015F93D610198C006304600D5384602990160204600F00AF991
:200140003D60204600F006F93D6101980007304600D5384602990160204600F0FBF83D60C4
:20016000204600F0F7F83D6101984007304600D5384602990160204600F0ECF83D602046BA
:2001800000F0E8F83D6101988007304600D5384602990160204600F0DDF83D60204600F0EE
:2001A000D9F83D610198C00700D03E46029F3760204600F0CFF80F480560204600F0CAF8F3
:2001C0000C4E3561204600F0C5F83760204600F0C1F83560204600F0BDF8074800683840A7
:2001E00041424141054801703561204600F0B2F803B0F0BD90320A4080330A4000002020FD
:20020000F0B583B0019102901B4F80253D6040243C606426304600F09DF83D61304600F0AD
:2002200099F83C61304600F095F85A20FFF748FF12480078002600281BD00298FFF740FF0C
:200240000E480078002814D00198FFF739FF0B48007800280DD03D613C606424204600F015
:2002600079F83D60204600F075F8204600F052F80126304603B0F0BD90320A4000002020C4
:2002800000F0F5F80024E1B20120FFF7B9FFAE2C01D8641D04E0012000242146FFF7B0FF92
:2002A000E1B20120FFF7ACFFAF2C01D2651D04E0012000252946FFF7A3FFE9B20120FFF7D6
:2002C0009FFF6C1DAF2DDED3012000242146FFF797FFD8E70D48002101600D48011F0A68B5
:2002E0000323DB4313400B6041680122914341604168120291434160016830229143016099
:2003000001680F22914301607047C04608030B4004010B40B0B50E497D22120242430B6844
:20032000262006E00D1F2D68E41A6419201890420DD21C460B68A34205D10B68A34202D1B1
:200340000B68A342F6D09C42ECD9E41AEEE7B0BD18E000E0B0B50D4940010B68262206E027
:200360000D1F2D68E41A6419A21882420DD21C460B68A34205D10B68A34202D10B68A342D1
:20038000F6D09C42ECD9E41AEEE7B0BD18E000E070B50A480A4C84420CD00A4D0A4EB542C7
:2003A00008D02A686968501C12789200A25890470835F4E700BF00BF70BDC046AC04000030
:2003C000A8040000AC040000B404000080B5064806494160064A5160064901601160102044
:2003E00000F04FF880BDC04600080A40030000B100280A4001000026084880F3088800BFD2
:2004000000BF00F045F8002801D0FFF7C1FF0020FFF736FF012000F03DF8C04600802020EA
:2004200004488121016041600348C021016001637047C0465C804240A0320A400548042132
:2004400001601F21416000218160016805220A430260704710E000E003228058002805D098
:20046000401E4A1C00230B701146F7E7704780B5FFF7ACFFFFF7D4FFFFF72CFFFFF7DEFF9B
:2004800080BD811E091F00BFFCD27047B4E770470120704700BFFEE7FEE700000000000061
:1804A000000000000100000059040000A0040000000020200000000002
:00000001FF
