:2000000000802020BD050000370200003702000000000000000000000000000000000000EC
:20002000000000000000000000000000370200000000000000000000370200003702000015
:200040003702000037020000370200003702000037020000370200003702000037020000D8
:2000600000000000370200003702000000000000000000003702000037020000B1030000E8
:2000800037020000370200003702000037020000370200003702000000000000000000000A
:2000A000370200003702000000000000000000003702000000000000370200003702000023
:2000C000F0B581B0314A29234B431B0B1D4630352F4C257064255D434B1BDBB2CD256B433B
:2000E000DE0A30273E432B4B1E704D43ED0A0A266E438D1B3D4328490D701568ED0705D078
:200100001568ED0702D01568ED07F6D1242595611568ED0705D01568ED0702D01568ED072B
:20012000F6D14030C0B2906120781468E40705D01468E40702D01468E407F6D19061187869
:200140001368DB0705D01368DB0702D01368DB07F6D1906108781168C90705D01168C90742
:2001600002D01168C907F6D190611068C00705D01068C00702D01068C007F6D1232090614D
:20018000642000F037F901B0F0BDC04608911040830020208400202085002020002A49D0DF
:2001A00084468B071CD1830722D1102A08D370B4103A78C978C0103AFBD270BC103238D0F0
:2001C000042A2CD3082A05D30C2A01D308C908C008C908C008C908C092072AD0920F22E0DD
:2001E0000B780370491C401C521E22D08B07F7D1C30714D18307D8D0121F12D308C9038041
:200200001B0C4380001D121FF8D20AE008C903701B0A43701B0A83701B0AC370001D121F18
:20022000F4D2121D05D00B780370491C401C521EF9D160467047FEE7F8B5451C0078002318
:20024000082B32D02F78C2070CD16A780F241440E41C122C0BD102242E57F4B2002E08D43E
:20026000EE1C0EE06D1C4A1C0F7011461AE0AE1C08E02E1DED7800957F252C40009DED0135
:200280002C1912343D0112095219094DAA420ED0D243002C05D08D5C4F1C0D70641E394607
:2002A000F7E7354640085B1CCAE72846C5E7F8BDFF0F000010B51249124C204600F062F969
:2002C0001149204600F050F8104801680322D3039943016001690E4B0B401A3303614169C4
:2002E00011433C2291434161416801221140436893435918416001681143016010BDC04635
:20030000D205000000801040C8050000009110400000FFFF00F006F90024E1B20120FFF7CD
:20032000CFFEAE2C01D8641D04E0012000242146FFF7C6FEE1B20120FFF7C2FEAF2C01D25A
:20034000651D04E0012000252946FFF7B9FEE9B20120FFF7B5FE6C1DAF2DDED30120002415
:200360002146FFF7ADFED8E770B511221302C218C4580125AC43C4500C888D7825438C8815
:200380002C43C558084E2E40084D2540AC19C4508879CB790343087A184351687E239943DC
:2003A00018400818506070BDE798FDFF186700000B480068C0B20B2810D10A4800680A49A0
:2003C0000A887E2A05D80A88531C0B800749885401E0002008800648012101707047C04627
:2003E0002090104024911040800020200000202082002020B0B50E497D22120242430B68CF
:20040000262006E00D1F2D68E41A6419201890420DD21C460B68A34205D10B68A34202D1D0
:200420000B68A342F6D09C42ECD9E41AEEE7B0BD18E000E00C48002101600C480146083931
:200440000A680323DB4313400B6001680122914301600168130299430160001F016812030F
:200460000A4302607047C04608030B4008010B4070B50A480A4C84420CD00A4D0A4EB54251
:2004800008D02A686968501C12789200A25890470835F4E700BF00BF70BDC046E405000016
:2004A000D8050000F40500000406000080B5074807494160074A5160074B59600749016029
:2004C00011601960102000F06FF880BD00080A40030000B100280A400088104001000026F7
:2004E000084880F3088800BF00BF00F069F8002801D0FFF7BDFF0020FFF70CFF012000F0FD
:2005000061F8C046008020200548042101601F21416000218160016805220A430260704710
:2005200010E000E080B500F00BF80120C003024908600249086080BD80E200E000E100E039
:2005400080B5FFF7B3FF00F013F8FFF773FFFFF7B1FEFFF7D9FF80BD03228058002805D0B1
:20056000401E4A1C00230B701146F7E77047000002488221016002494160704754804240E6
:200580008200040010B50122120383180C789C604978815010BD80B50B4603214258C11D3C
:2005A000184600F007F880BD811E091F00BFFCD27047000080B5FFF7F1FD80BD90E7704722
:0805C0000120704700BFFEE7B7
:1005C80000001800000000300000040000000000D7
:2005D8003902000097050000590500000200000003000000000100000F70FFF0E405000071
:1005F80083002020EC0500000000202000000000FF
:00000001FF
