:020000040000FA
:10000000680120204D010000510100005301000053
:1000100000000000000000000000000000000000E0
:10002000000000000000000000000000550100007A
:10003000000000000000000057010000590100000E
:100040005B0100005B0100005B0100005B01000040
:100050005B0100005B0100005B0100005B01000030
:10006000000000005B0100005B01000000000000D8
:10007000000000005B0100005B0100005B0100006C
:100080005B0100005B0100005B0100005B01000000
:100090005B0100005B0100000000000000000000A8
:1000A0005B0100005B010000000000000000000098
:1000B0005B010000000000005B0100005B0100002C
:1000C00000F002F800F032F80CA030C8083824180C
:1000D0002D18671EA246AB4654465D46AC4201D180
:1000E00000F024F87E460F3EB6460FCC0126334280
:1000F00000D0FB1A3343A246AB461847A4050000C4
:10010000B4050000000000000023002400250026A4
:10011000103A01D378C1FBD8520700D330C100D5C3
:100120000B6070471FB51FBD10B510BD00F027F85C
:100130001146FFF7F7FF00F094FA00F03FF803B420
:10014000FFF7F2FF03BC00F045F800000648004747
:10015000FEE7FEE7FEE7FEE7FEE7FEE703480449A9
:10016000024A044B70470000C100000068002020D4
:10017000680120206800202070477047704775464E
:1001800000F024F8AE46050069465346C008C0009A
:10019000854618B020B5FFF7E1FF60BCB6460026E3
:1001A0000027C0C5C0C5C0C5C0C5C0C5C0C5C0C585
:1001B000C0C5403D490849008D46704710B504460A
:1001C000C046C0462046FFF7BAFF10BD0048704742
:1001D0000000202001491820ABBEFEE726000200E7
:1001E000704782B001900199881E001F00BFFCD2A9
:1001F000009002B0704784B003900291019203987E
:100200000068009000980199884300900098029936
:10021000019A114008430399086004B0704782B006
:10022000019000910098019995225201885002B0E6
:10023000704782B001900091009801999522520177
:10024000885002B07047000082B001900091009881
:100250000199024A885002B07047C046D01200008F
:1002600081B0009000990120C2020248885001B07C
:100270007047C0460100002681B0009000988100C0
:10028000024A8120885001B07047C0460480424035
:1002900082B00190009101982721C901405800992E
:1002A000084002B07047000081B000900099024AF7
:1002B0000248885001B0704704080000030000B1F4
:1002C00082B00190009100980199024A885002B0D2
:1002D0007047C0469012000006490868012290430A
:1002E00008607047034908680122120290430860C1
:1002F0007047C04608010B4081B001466846017056
:1003000000780249086001B07047C04608030B40FE
:1003100080B582B0014601A8017001780F480F2214
:10032000FFF769FF02B080BD80B582B0014601A829
:100330000170017802480322FFF75DFF02B080BD23
:1003400000010B4080B582B0014601A80170017820
:1003500002483022FFF74FFF02B080BD04010B407E
:1003600009490868052210430860704781B0009071
:100370000549042008600098401EB6490860B44949
:100380000020086001B0704710E000E080B586B042
:1003900005A9087004A900200870FFE704A80078E8
:1003A000072826DCFFE7059804A90978884000069D
:1003B000002805D5FFE784488021FFF781FF04E08E
:1003C00081488021FFF735FFFFE700F045F97E48BF
:1003D000029040210391FFF773FF00F03DF902986E
:1003E0000399FFF726FFFFE70498401C04A9087053
:1003F000D4E700F031F97448009080210191FFF7B3
:100400005FFF00F029F900984021FFF759FF00F045
:1004100023F900980199FFF73BFF002804D0FFE77C
:1004200025490020087003E0234901200870FFE7F8
:1004300065484021FFF7FDFE00F00EF906B080BDD3
:1004400080B584B002AA107001A8017000F088F88D
:100450005A20FFF79BFF18480078002804D1FFE7D7
:1004600003A90020087022E002A80078FFF78EFFA1
:1004700011480078002804D1FFE703A90020087084
:1004800015E001A80078FFF781FF0B4800780028ED
:1004900004D1FFE703A90020087008E000F07EF80F
:1004A000642000F093F803A901200870FFE703A877
:1004B000007804B080BDC0466000202080B582B0C6
:1004C0001620FFF7D9FE1720FFF7D6FE3E48009012
:1004D000C0210191FFF7A3FE00980199FFF7B4FE38
:1004E00002B080BD80B582B000200190FFF704FF0C
:1004F0000198FFF719FFFFF7EFFEFFF7F3FE0198F2
:10050000FFF720FF0198FFF703FF02B080BD80B521
:100510002020FFF72BFFFFF723FF80BD80B500F001
:1005200007F8FFF7CBFFFFF7DDFFFFF7F0FF80BD18
:1005300080B582B009480090FFF7B6FE22480190CE
:10054000FFF7B2FE0098FFF78BFE0198FFF788FED9
:100550001020FFF746FE02B080BDC04600000A40F2
:1005600080B584B01848029080210191FFF7A8FE61
:10057000029840210391FFF7A3FE00F06DF8019966
:100580000298FFF756FE00F067F802980399FFF70C
:1005900050FE00F061F804B080BDC04680B582B066
:1005A0000948009080210191FFF743FE0098402107
:1005B000FFF786FE00F050F800980199FFF780FEE3
:1005C00000F04AF802B080BD00200A4080B582B039
:1005D000019001997D20C000484300F003F802B06B
:1005E00080BD000085B00490262000900498400152
:1005F0000390174800680290FFE7154800680190D3
:100600000198029988421FD0FFE701980299884219
:1006100007D2FFE702980199411A0098401800900C
:1006200009E00C4800680199401A029941180098A5
:1006300040180090FFE701980290009803998842C3
:1006400001D3FFE701E0FFE7D7E705B07047C046F9
:1006500018E000E014E000E080B56420FFF7C2FF7E
:1006600080BD80B582B0002001900090FFF756FF5A
:10067000FFE700200090FFE70098B3280ADCFFE7BF
:10068000684601780120FFF7DBFEFFE70098401D78
:100690000090F1E701200021FFF7D2FEE9E700001A
:1006A000B0060000000020206801000008010000E2
:04000005000000C136
:00000001FF
